{
  "contracts/Transaction.sol": {
    "Transaction": {
      "abi": [
        {
          "anonymous": false,
          "inputs": [
            {
              "indexed": false,
              "internalType": "address",
              "name": "from",
              "type": "address"
            },
            {
              "indexed": false,
              "internalType": "address",
              "name": "receiver",
              "type": "address"
            },
            {
              "indexed": false,
              "internalType": "uint256",
              "name": "amount",
              "type": "uint256"
            },
            {
              "indexed": false,
              "internalType": "string",
              "name": "message",
              "type": "string"
            },
            {
              "indexed": false,
              "internalType": "uint256",
              "name": "timestamp",
              "type": "uint256"
            },
            {
              "indexed": false,
              "internalType": "string",
              "name": "keyword",
              "type": "string"
            }
          ],
          "name": "Transfer",
          "type": "event"
        },
        {
          "inputs": [
            {
              "internalType": "address payable",
              "name": "receiver",
              "type": "address"
            },
            {
              "internalType": "uint256",
              "name": "amount",
              "type": "uint256"
            },
            {
              "internalType": "string",
              "name": "message",
              "type": "string"
            },
            {
              "internalType": "string",
              "name": "keyword",
              "type": "string"
            }
          ],
          "name": "addtoBlockChain",
          "outputs": [],
          "stateMutability": "nonpayable",
          "type": "function"
        },
        {
          "inputs": [],
          "name": "getAllTransactions",
          "outputs": [
            {
              "components": [
                {
                  "internalType": "address",
                  "name": "sender",
                  "type": "address"
                },
                {
                  "internalType": "address",
                  "name": "receiver",
                  "type": "address"
                },
                {
                  "internalType": "uint256",
                  "name": "amount",
                  "type": "uint256"
                },
                {
                  "internalType": "string",
                  "name": "message",
                  "type": "string"
                },
                {
                  "internalType": "uint256",
                  "name": "timestamp",
                  "type": "uint256"
                },
                {
                  "internalType": "string",
                  "name": "keyword",
                  "type": "string"
                }
              ],
              "internalType": "struct Transaction.TransferStruct[]",
              "name": "",
              "type": "tuple[]"
            }
          ],
          "stateMutability": "view",
          "type": "function"
        },
        {
          "inputs": [],
          "name": "getTransactionCount",
          "outputs": [
            {
              "internalType": "uint256",
              "name": "",
              "type": "uint256"
            }
          ],
          "stateMutability": "view",
          "type": "function"
        }
      ],
      "evm": {
        "bytecode": {
          "linkReferences": {},
          "object": "6080604052348015600f57600080fd5b50610e1e8061001f6000396000f3fe608060405234801561001057600080fd5b50600436106100415760003560e01c806314d003ea1461004657806327506f53146100625780632e7700f014610080575b600080fd5b610060600480360381019061005b919061068a565b61009e565b005b61006a610250565b604051610077919061092a565b60405180910390f35b610088610493565b604051610095919061095b565b60405180910390f35b6000808154809291906100b0906109a5565b919050555060016040518060c001604052803373ffffffffffffffffffffffffffffffffffffffff1681526020018673ffffffffffffffffffffffffffffffffffffffff16815260200185815260200184815260200142815260200183815250908060018154018082558091505060019003906000526020600020906006020160009091909190915060008201518160000160006101000a81548173ffffffffffffffffffffffffffffffffffffffff021916908373ffffffffffffffffffffffffffffffffffffffff16021790555060208201518160010160006101000a81548173ffffffffffffffffffffffffffffffffffffffff021916908373ffffffffffffffffffffffffffffffffffffffff1602179055506040820151816002015560608201518160030190816101e69190610bf9565b506080820151816004015560a08201518160050190816102069190610bf9565b5050507f416cfa4330a4565f45c2fd2dd4826a83a37443aba2ce6f79477c7355afac35fa33858585428660405161024296959493929190610d79565b60405180910390a150505050565b60606001805480602002602001604051908101604052809291908181526020016000905b8282101561048a57838290600052602060002090600602016040518060c00160405290816000820160009054906101000a900473ffffffffffffffffffffffffffffffffffffffff1673ffffffffffffffffffffffffffffffffffffffff1673ffffffffffffffffffffffffffffffffffffffff1681526020016001820160009054906101000a900473ffffffffffffffffffffffffffffffffffffffff1673ffffffffffffffffffffffffffffffffffffffff1673ffffffffffffffffffffffffffffffffffffffff1681526020016002820154815260200160038201805461035d90610a1c565b80601f016020809104026020016040519081016040528092919081815260200182805461038990610a1c565b80156103d65780601f106103ab576101008083540402835291602001916103d6565b820191906000526020600020905b8154815290600101906020018083116103b957829003601f168201915b50505050508152602001600482015481526020016005820180546103f990610a1c565b80601f016020809104026020016040519081016040528092919081815260200182805461042590610a1c565b80156104725780601f1061044757610100808354040283529160200191610472565b820191906000526020600020905b81548152906001019060200180831161045557829003601f168201915b50505050508152505081526020019060010190610274565b50505050905090565b60008054905090565b6000604051905090565b600080fd5b600080fd5b600073ffffffffffffffffffffffffffffffffffffffff82169050919050565b60006104db826104b0565b9050919050565b6104eb816104d0565b81146104f657600080fd5b50565b600081359050610508816104e2565b92915050565b6000819050919050565b6105218161050e565b811461052c57600080fd5b50565b60008135905061053e81610518565b92915050565b600080fd5b600080fd5b6000601f19601f8301169050919050565b7f4e487b7100000000000000000000000000000000000000000000000000000000600052604160045260246000fd5b6105978261054e565b810181811067ffffffffffffffff821117156105b6576105b561055f565b5b80604052505050565b60006105c961049c565b90506105d5828261058e565b919050565b600067ffffffffffffffff8211156105f5576105f461055f565b5b6105fe8261054e565b9050602081019050919050565b82818337600083830152505050565b600061062d610628846105da565b6105bf565b90508281526020810184848401111561064957610648610549565b5b61065484828561060b565b509392505050565b600082601f83011261067157610670610544565b5b813561068184826020860161061a565b91505092915050565b600080600080608085870312156106a4576106a36104a6565b5b60006106b2878288016104f9565b94505060206106c38782880161052f565b935050604085013567ffffffffffffffff8111156106e4576106e36104ab565b5b6106f08782880161065c565b925050606085013567ffffffffffffffff811115610711576107106104ab565b5b61071d8782880161065c565b91505092959194509250565b600081519050919050565b600082825260208201905092915050565b6000819050602082019050919050565b6000610760826104b0565b9050919050565b61077081610755565b82525050565b61077f8161050e565b82525050565b600081519050919050565b600082825260208201905092915050565b60005b838110156107bf5780820151818401526020810190506107a4565b60008484015250505050565b60006107d682610785565b6107e08185610790565b93506107f08185602086016107a1565b6107f98161054e565b840191505092915050565b600060c08301600083015161081c6000860182610767565b50602083015161082f6020860182610767565b5060408301516108426040860182610776565b506060830151848203606086015261085a82826107cb565b915050608083015161086f6080860182610776565b5060a083015184820360a086015261088782826107cb565b9150508091505092915050565b60006108a08383610804565b905092915050565b6000602082019050919050565b60006108c082610729565b6108ca8185610734565b9350836020820285016108dc85610745565b8060005b8581101561091857848403895281516108f98582610894565b9450610904836108a8565b925060208a019950506001810190506108e0565b50829750879550505050505092915050565b6000602082019050818103600083015261094481846108b5565b905092915050565b6109558161050e565b82525050565b6000602082019050610970600083018461094c565b92915050565b7f4e487b7100000000000000000000000000000000000000000000000000000000600052601160045260246000fd5b60006109b08261050e565b91507fffffffffffffffffffffffffffffffffffffffffffffffffffffffffffffffff82036109e2576109e1610976565b5b600182019050919050565b7f4e487b7100000000000000000000000000000000000000000000000000000000600052602260045260246000fd5b60006002820490506001821680610a3457607f821691505b602082108103610a4757610a466109ed565b5b50919050565b60008190508160005260206000209050919050565b60006020601f8301049050919050565b600082821b905092915050565b600060088302610aaf7fffffffffffffffffffffffffffffffffffffffffffffffffffffffffffffffff82610a72565b610ab98683610a72565b95508019841693508086168417925050509392505050565b6000819050919050565b6000610af6610af1610aec8461050e565b610ad1565b61050e565b9050919050565b6000819050919050565b610b1083610adb565b610b24610b1c82610afd565b848454610a7f565b825550505050565b600090565b610b39610b2c565b610b44818484610b07565b505050565b5b81811015610b6857610b5d600082610b31565b600181019050610b4a565b5050565b601f821115610bad57610b7e81610a4d565b610b8784610a62565b81016020851015610b96578190505b610baa610ba285610a62565b830182610b49565b50505b505050565b600082821c905092915050565b6000610bd060001984600802610bb2565b1980831691505092915050565b6000610be98383610bbf565b9150826002028217905092915050565b610c0282610785565b67ffffffffffffffff811115610c1b57610c1a61055f565b5b610c258254610a1c565b610c30828285610b6c565b600060209050601f831160018114610c635760008415610c51578287015190505b610c5b8582610bdd565b865550610cc3565b601f198416610c7186610a4d565b60005b82811015610c9957848901518255600182019150602085019450602081019050610c74565b86831015610cb65784890151610cb2601f891682610bbf565b8355505b6001600288020188555050505b505050505050565b610cd481610755565b82525050565b6000610cf5610cf0610ceb846104b0565b610ad1565b6104b0565b9050919050565b6000610d0782610cda565b9050919050565b6000610d1982610cfc565b9050919050565b610d2981610d0e565b82525050565b600082825260208201905092915050565b6000610d4b82610785565b610d558185610d2f565b9350610d658185602086016107a1565b610d6e8161054e565b840191505092915050565b600060c082019050610d8e6000830189610ccb565b610d9b6020830188610d20565b610da8604083018761094c565b8181036060830152610dba8186610d40565b9050610dc9608083018561094c565b81810360a0830152610ddb8184610d40565b905097965050505050505056fea264697066735822122068d034c849bbd23f1c8bb5b36afb849f3392b515ed08236bdb8ff8fdb19b346864736f6c634300081c0033",
          "opcodes": "PUSH1 0x80 PUSH1 0x40 MSTORE CALLVALUE DUP1 ISZERO PUSH1 0xF JUMPI PUSH1 0x0 DUP1 REVERT JUMPDEST POP PUSH2 0xE1E DUP1 PUSH2 0x1F PUSH1 0x0 CODECOPY PUSH1 0x0 RETURN INVALID PUSH1 0x80 PUSH1 0x40 MSTORE CALLVALUE DUP1 ISZERO PUSH2 0x10 JUMPI PUSH1 0x0 DUP1 REVERT JUMPDEST POP PUSH1 0x4 CALLDATASIZE LT PUSH2 0x41 JUMPI PUSH1 0x0 CALLDATALOAD PUSH1 0xE0 SHR DUP1 PUSH4 0x14D003EA EQ PUSH2 0x46 JUMPI DUP1 PUSH4 0x27506F53 EQ PUSH2 0x62 JUMPI DUP1 PUSH4 0x2E7700F0 EQ PUSH2 0x80 JUMPI JUMPDEST PUSH1 0x0 DUP1 REVERT JUMPDEST PUSH2 0x60 PUSH1 0x4 DUP1 CALLDATASIZE SUB DUP2 ADD SWAP1 PUSH2 0x5B SWAP2 SWAP1 PUSH2 0x68A JUMP JUMPDEST PUSH2 0x9E JUMP JUMPDEST STOP JUMPDEST PUSH2 0x6A PUSH2 0x250 JUMP JUMPDEST PUSH1 0x40 MLOAD PUSH2 0x77 SWAP2 SWAP1 PUSH2 0x92A JUMP JUMPDEST PUSH1 0x40 MLOAD DUP1 SWAP2 SUB SWAP1 RETURN JUMPDEST PUSH2 0x88 PUSH2 0x493 JUMP JUMPDEST PUSH1 0x40 MLOAD PUSH2 0x95 SWAP2 SWAP1 PUSH2 0x95B JUMP JUMPDEST PUSH1 0x40 MLOAD DUP1 SWAP2 SUB SWAP1 RETURN JUMPDEST PUSH1 0x0 DUP1 DUP2 SLOAD DUP1 SWAP3 SWAP2 SWAP1 PUSH2 0xB0 SWAP1 PUSH2 0x9A5 JUMP JUMPDEST SWAP2 SWAP1 POP SSTORE POP PUSH1 0x1 PUSH1 0x40 MLOAD DUP1 PUSH1 0xC0 ADD PUSH1 0x40 MSTORE DUP1 CALLER PUSH20 0xFFFFFFFFFFFFFFFFFFFFFFFFFFFFFFFFFFFFFFFF AND DUP2 MSTORE PUSH1 0x20 ADD DUP7 PUSH20 0xFFFFFFFFFFFFFFFFFFFFFFFFFFFFFFFFFFFFFFFF AND DUP2 MSTORE PUSH1 0x20 ADD DUP6 DUP2 MSTORE PUSH1 0x20 ADD DUP5 DUP2 MSTORE PUSH1 0x20 ADD TIMESTAMP DUP2 MSTORE PUSH1 0x20 ADD DUP4 DUP2 MSTORE POP SWAP1 DUP1 PUSH1 0x1 DUP2 SLOAD ADD DUP1 DUP3 SSTORE DUP1 SWAP2 POP POP PUSH1 0x1 SWAP1 SUB SWAP1 PUSH1 0x0 MSTORE PUSH1 0x20 PUSH1 0x0 KECCAK256 SWAP1 PUSH1 0x6 MUL ADD PUSH1 0x0 SWAP1 SWAP2 SWAP1 SWAP2 SWAP1 SWAP2 POP PUSH1 0x0 DUP3 ADD MLOAD DUP2 PUSH1 0x0 ADD PUSH1 0x0 PUSH2 0x100 EXP DUP2 SLOAD DUP2 PUSH20 0xFFFFFFFFFFFFFFFFFFFFFFFFFFFFFFFFFFFFFFFF MUL NOT AND SWAP1 DUP4 PUSH20 0xFFFFFFFFFFFFFFFFFFFFFFFFFFFFFFFFFFFFFFFF AND MUL OR SWAP1 SSTORE POP PUSH1 0x20 DUP3 ADD MLOAD DUP2 PUSH1 0x1 ADD PUSH1 0x0 PUSH2 0x100 EXP DUP2 SLOAD DUP2 PUSH20 0xFFFFFFFFFFFFFFFFFFFFFFFFFFFFFFFFFFFFFFFF MUL NOT AND SWAP1 DUP4 PUSH20 0xFFFFFFFFFFFFFFFFFFFFFFFFFFFFFFFFFFFFFFFF AND MUL OR SWAP1 SSTORE POP PUSH1 0x40 DUP3 ADD MLOAD DUP2 PUSH1 0x2 ADD SSTORE PUSH1 0x60 DUP3 ADD MLOAD DUP2 PUSH1 0x3 ADD SWAP1 DUP2 PUSH2 0x1E6 SWAP2 SWAP1 PUSH2 0xBF9 JUMP JUMPDEST POP PUSH1 0x80 DUP3 ADD MLOAD DUP2 PUSH1 0x4 ADD SSTORE PUSH1 0xA0 DUP3 ADD MLOAD DUP2 PUSH1 0x5 ADD SWAP1 DUP2 PUSH2 0x206 SWAP2 SWAP1 PUSH2 0xBF9 JUMP JUMPDEST POP POP POP PUSH32 0x416CFA4330A4565F45C2FD2DD4826A83A37443ABA2CE6F79477C7355AFAC35FA CALLER DUP6 DUP6 DUP6 TIMESTAMP DUP7 PUSH1 0x40 MLOAD PUSH2 0x242 SWAP7 SWAP6 SWAP5 SWAP4 SWAP3 SWAP2 SWAP1 PUSH2 0xD79 JUMP JUMPDEST PUSH1 0x40 MLOAD DUP1 SWAP2 SUB SWAP1 LOG1 POP POP POP POP JUMP JUMPDEST PUSH1 0x60 PUSH1 0x1 DUP1 SLOAD DUP1 PUSH1 0x20 MUL PUSH1 0x20 ADD PUSH1 0x40 MLOAD SWAP1 DUP2 ADD PUSH1 0x40 MSTORE DUP1 SWAP3 SWAP2 SWAP1 DUP2 DUP2 MSTORE PUSH1 0x20 ADD PUSH1 0x0 SWAP1 JUMPDEST DUP3 DUP3 LT ISZERO PUSH2 0x48A JUMPI DUP4 DUP3 SWAP1 PUSH1 0x0 MSTORE PUSH1 0x20 PUSH1 0x0 KECCAK256 SWAP1 PUSH1 0x6 MUL ADD PUSH1 0x40 MLOAD DUP1 PUSH1 0xC0 ADD PUSH1 0x40 MSTORE SWAP1 DUP2 PUSH1 0x0 DUP3 ADD PUSH1 0x0 SWAP1 SLOAD SWAP1 PUSH2 0x100 EXP SWAP1 DIV PUSH20 0xFFFFFFFFFFFFFFFFFFFFFFFFFFFFFFFFFFFFFFFF AND PUSH20 0xFFFFFFFFFFFFFFFFFFFFFFFFFFFFFFFFFFFFFFFF AND PUSH20 0xFFFFFFFFFFFFFFFFFFFFFFFFFFFFFFFFFFFFFFFF AND DUP2 MSTORE PUSH1 0x20 ADD PUSH1 0x1 DUP3 ADD PUSH1 0x0 SWAP1 SLOAD SWAP1 PUSH2 0x100 EXP SWAP1 DIV PUSH20 0xFFFFFFFFFFFFFFFFFFFFFFFFFFFFFFFFFFFFFFFF AND PUSH20 0xFFFFFFFFFFFFFFFFFFFFFFFFFFFFFFFFFFFFFFFF AND PUSH20 0xFFFFFFFFFFFFFFFFFFFFFFFFFFFFFFFFFFFFFFFF AND DUP2 MSTORE PUSH1 0x20 ADD PUSH1 0x2 DUP3 ADD SLOAD DUP2 MSTORE PUSH1 0x20 ADD PUSH1 0x3 DUP3 ADD DUP1 SLOAD PUSH2 0x35D SWAP1 PUSH2 0xA1C JUMP JUMPDEST DUP1 PUSH1 0x1F ADD PUSH1 0x20 DUP1 SWAP2 DIV MUL PUSH1 0x20 ADD PUSH1 0x40 MLOAD SWAP1 DUP2 ADD PUSH1 0x40 MSTORE DUP1 SWAP3 SWAP2 SWAP1 DUP2 DUP2 MSTORE PUSH1 0x20 ADD DUP3 DUP1 SLOAD PUSH2 0x389 SWAP1 PUSH2 0xA1C JUMP JUMPDEST DUP1 ISZERO PUSH2 0x3D6 JUMPI DUP1 PUSH1 0x1F LT PUSH2 0x3AB JUMPI PUSH2 0x100 DUP1 DUP4 SLOAD DIV MUL DUP4 MSTORE SWAP2 PUSH1 0x20 ADD SWAP2 PUSH2 0x3D6 JUMP JUMPDEST DUP3 ADD SWAP2 SWAP1 PUSH1 0x0 MSTORE PUSH1 0x20 PUSH1 0x0 KECCAK256 SWAP1 JUMPDEST DUP2 SLOAD DUP2 MSTORE SWAP1 PUSH1 0x1 ADD SWAP1 PUSH1 0x20 ADD DUP1 DUP4 GT PUSH2 0x3B9 JUMPI DUP3 SWAP1 SUB PUSH1 0x1F AND DUP3 ADD SWAP2 JUMPDEST POP POP POP POP POP DUP2 MSTORE PUSH1 0x20 ADD PUSH1 0x4 DUP3 ADD SLOAD DUP2 MSTORE PUSH1 0x20 ADD PUSH1 0x5 DUP3 ADD DUP1 SLOAD PUSH2 0x3F9 SWAP1 PUSH2 0xA1C JUMP JUMPDEST DUP1 PUSH1 0x1F ADD PUSH1 0x20 DUP1 SWAP2 DIV MUL PUSH1 0x20 ADD PUSH1 0x40 MLOAD SWAP1 DUP2 ADD PUSH1 0x40 MSTORE DUP1 SWAP3 SWAP2 SWAP1 DUP2 DUP2 MSTORE PUSH1 0x20 ADD DUP3 DUP1 SLOAD PUSH2 0x425 SWAP1 PUSH2 0xA1C JUMP JUMPDEST DUP1 ISZERO PUSH2 0x472 JUMPI DUP1 PUSH1 0x1F LT PUSH2 0x447 JUMPI PUSH2 0x100 DUP1 DUP4 SLOAD DIV MUL DUP4 MSTORE SWAP2 PUSH1 0x20 ADD SWAP2 PUSH2 0x472 JUMP JUMPDEST DUP3 ADD SWAP2 SWAP1 PUSH1 0x0 MSTORE PUSH1 0x20 PUSH1 0x0 KECCAK256 SWAP1 JUMPDEST DUP2 SLOAD DUP2 MSTORE SWAP1 PUSH1 0x1 ADD SWAP1 PUSH1 0x20 ADD DUP1 DUP4 GT PUSH2 0x455 JUMPI DUP3 SWAP1 SUB PUSH1 0x1F AND DUP3 ADD SWAP2 JUMPDEST POP POP POP POP POP DUP2 MSTORE POP POP DUP2 MSTORE PUSH1 0x20 ADD SWAP1 PUSH1 0x1 ADD SWAP1 PUSH2 0x274 JUMP JUMPDEST POP POP POP POP SWAP1 POP SWAP1 JUMP JUMPDEST PUSH1 0x0 DUP1 SLOAD SWAP1 POP SWAP1 JUMP JUMPDEST PUSH1 0x0 PUSH1 0x40 MLOAD SWAP1 POP SWAP1 JUMP JUMPDEST PUSH1 0x0 DUP1 REVERT JUMPDEST PUSH1 0x0 DUP1 REVERT JUMPDEST PUSH1 0x0 PUSH20 0xFFFFFFFFFFFFFFFFFFFFFFFFFFFFFFFFFFFFFFFF DUP3 AND SWAP1 POP SWAP2 SWAP1 POP JUMP JUMPDEST PUSH1 0x0 PUSH2 0x4DB DUP3 PUSH2 0x4B0 JUMP JUMPDEST SWAP1 POP SWAP2 SWAP1 POP JUMP JUMPDEST PUSH2 0x4EB DUP2 PUSH2 0x4D0 JUMP JUMPDEST DUP2 EQ PUSH2 0x4F6 JUMPI PUSH1 0x0 DUP1 REVERT JUMPDEST POP JUMP JUMPDEST PUSH1 0x0 DUP2 CALLDATALOAD SWAP1 POP PUSH2 0x508 DUP2 PUSH2 0x4E2 JUMP JUMPDEST SWAP3 SWAP2 POP POP JUMP JUMPDEST PUSH1 0x0 DUP2 SWAP1 POP SWAP2 SWAP1 POP JUMP JUMPDEST PUSH2 0x521 DUP2 PUSH2 0x50E JUMP JUMPDEST DUP2 EQ PUSH2 0x52C JUMPI PUSH1 0x0 DUP1 REVERT JUMPDEST POP JUMP JUMPDEST PUSH1 0x0 DUP2 CALLDATALOAD SWAP1 POP PUSH2 0x53E DUP2 PUSH2 0x518 JUMP JUMPDEST SWAP3 SWAP2 POP POP JUMP JUMPDEST PUSH1 0x0 DUP1 REVERT JUMPDEST PUSH1 0x0 DUP1 REVERT JUMPDEST PUSH1 0x0 PUSH1 0x1F NOT PUSH1 0x1F DUP4 ADD AND SWAP1 POP SWAP2 SWAP1 POP JUMP JUMPDEST PUSH32 0x4E487B7100000000000000000000000000000000000000000000000000000000 PUSH1 0x0 MSTORE PUSH1 0x41 PUSH1 0x4 MSTORE PUSH1 0x24 PUSH1 0x0 REVERT JUMPDEST PUSH2 0x597 DUP3 PUSH2 0x54E JUMP JUMPDEST DUP2 ADD DUP2 DUP2 LT PUSH8 0xFFFFFFFFFFFFFFFF DUP3 GT OR ISZERO PUSH2 0x5B6 JUMPI PUSH2 0x5B5 PUSH2 0x55F JUMP JUMPDEST JUMPDEST DUP1 PUSH1 0x40 MSTORE POP POP POP JUMP JUMPDEST PUSH1 0x0 PUSH2 0x5C9 PUSH2 0x49C JUMP JUMPDEST SWAP1 POP PUSH2 0x5D5 DUP3 DUP3 PUSH2 0x58E JUMP JUMPDEST SWAP2 SWAP1 POP JUMP JUMPDEST PUSH1 0x0 PUSH8 0xFFFFFFFFFFFFFFFF DUP3 GT ISZERO PUSH2 0x5F5 JUMPI PUSH2 0x5F4 PUSH2 0x55F JUMP JUMPDEST JUMPDEST PUSH2 0x5FE DUP3 PUSH2 0x54E JUMP JUMPDEST SWAP1 POP PUSH1 0x20 DUP2 ADD SWAP1 POP SWAP2 SWAP1 POP JUMP JUMPDEST DUP3 DUP2 DUP4 CALLDATACOPY PUSH1 0x0 DUP4 DUP4 ADD MSTORE POP POP POP JUMP JUMPDEST PUSH1 0x0 PUSH2 0x62D PUSH2 0x628 DUP5 PUSH2 0x5DA JUMP JUMPDEST PUSH2 0x5BF JUMP JUMPDEST SWAP1 POP DUP3 DUP2 MSTORE PUSH1 0x20 DUP2 ADD DUP5 DUP5 DUP5 ADD GT ISZERO PUSH2 0x649 JUMPI PUSH2 0x648 PUSH2 0x549 JUMP JUMPDEST JUMPDEST PUSH2 0x654 DUP5 DUP3 DUP6 PUSH2 0x60B JUMP JUMPDEST POP SWAP4 SWAP3 POP POP POP JUMP JUMPDEST PUSH1 0x0 DUP3 PUSH1 0x1F DUP4 ADD SLT PUSH2 0x671 JUMPI PUSH2 0x670 PUSH2 0x544 JUMP JUMPDEST JUMPDEST DUP2 CALLDATALOAD PUSH2 0x681 DUP5 DUP3 PUSH1 0x20 DUP7 ADD PUSH2 0x61A JUMP JUMPDEST SWAP2 POP POP SWAP3 SWAP2 POP POP JUMP JUMPDEST PUSH1 0x0 DUP1 PUSH1 0x0 DUP1 PUSH1 0x80 DUP6 DUP8 SUB SLT ISZERO PUSH2 0x6A4 JUMPI PUSH2 0x6A3 PUSH2 0x4A6 JUMP JUMPDEST JUMPDEST PUSH1 0x0 PUSH2 0x6B2 DUP8 DUP3 DUP9 ADD PUSH2 0x4F9 JUMP JUMPDEST SWAP5 POP POP PUSH1 0x20 PUSH2 0x6C3 DUP8 DUP3 DUP9 ADD PUSH2 0x52F JUMP JUMPDEST SWAP4 POP POP PUSH1 0x40 DUP6 ADD CALLDATALOAD PUSH8 0xFFFFFFFFFFFFFFFF DUP2 GT ISZERO PUSH2 0x6E4 JUMPI PUSH2 0x6E3 PUSH2 0x4AB JUMP JUMPDEST JUMPDEST PUSH2 0x6F0 DUP8 DUP3 DUP9 ADD PUSH2 0x65C JUMP JUMPDEST SWAP3 POP POP PUSH1 0x60 DUP6 ADD CALLDATALOAD PUSH8 0xFFFFFFFFFFFFFFFF DUP2 GT ISZERO PUSH2 0x711 JUMPI PUSH2 0x710 PUSH2 0x4AB JUMP JUMPDEST JUMPDEST PUSH2 0x71D DUP8 DUP3 DUP9 ADD PUSH2 0x65C JUMP JUMPDEST SWAP2 POP POP SWAP3 SWAP6 SWAP2 SWAP5 POP SWAP3 POP JUMP JUMPDEST PUSH1 0x0 DUP2 MLOAD SWAP1 POP SWAP2 SWAP1 POP JUMP JUMPDEST PUSH1 0x0 DUP3 DUP3 MSTORE PUSH1 0x20 DUP3 ADD SWAP1 POP SWAP3 SWAP2 POP POP JUMP JUMPDEST PUSH1 0x0 DUP2 SWAP1 POP PUSH1 0x20 DUP3 ADD SWAP1 POP SWAP2 SWAP1 POP JUMP JUMPDEST PUSH1 0x0 PUSH2 0x760 DUP3 PUSH2 0x4B0 JUMP JUMPDEST SWAP1 POP SWAP2 SWAP1 POP JUMP JUMPDEST PUSH2 0x770 DUP2 PUSH2 0x755 JUMP JUMPDEST DUP3 MSTORE POP POP JUMP JUMPDEST PUSH2 0x77F DUP2 PUSH2 0x50E JUMP JUMPDEST DUP3 MSTORE POP POP JUMP JUMPDEST PUSH1 0x0 DUP2 MLOAD SWAP1 POP SWAP2 SWAP1 POP JUMP JUMPDEST PUSH1 0x0 DUP3 DUP3 MSTORE PUSH1 0x20 DUP3 ADD SWAP1 POP SWAP3 SWAP2 POP POP JUMP JUMPDEST PUSH1 0x0 JUMPDEST DUP4 DUP2 LT ISZERO PUSH2 0x7BF JUMPI DUP1 DUP3 ADD MLOAD DUP2 DUP5 ADD MSTORE PUSH1 0x20 DUP2 ADD SWAP1 POP PUSH2 0x7A4 JUMP JUMPDEST PUSH1 0x0 DUP5 DUP5 ADD MSTORE POP POP POP POP JUMP JUMPDEST PUSH1 0x0 PUSH2 0x7D6 DUP3 PUSH2 0x785 JUMP JUMPDEST PUSH2 0x7E0 DUP2 DUP6 PUSH2 0x790 JUMP JUMPDEST SWAP4 POP PUSH2 0x7F0 DUP2 DUP6 PUSH1 0x20 DUP7 ADD PUSH2 0x7A1 JUMP JUMPDEST PUSH2 0x7F9 DUP2 PUSH2 0x54E JUMP JUMPDEST DUP5 ADD SWAP2 POP POP SWAP3 SWAP2 POP POP JUMP JUMPDEST PUSH1 0x0 PUSH1 0xC0 DUP4 ADD PUSH1 0x0 DUP4 ADD MLOAD PUSH2 0x81C PUSH1 0x0 DUP7 ADD DUP3 PUSH2 0x767 JUMP JUMPDEST POP PUSH1 0x20 DUP4 ADD MLOAD PUSH2 0x82F PUSH1 0x20 DUP7 ADD DUP3 PUSH2 0x767 JUMP JUMPDEST POP PUSH1 0x40 DUP4 ADD MLOAD PUSH2 0x842 PUSH1 0x40 DUP7 ADD DUP3 PUSH2 0x776 JUMP JUMPDEST POP PUSH1 0x60 DUP4 ADD MLOAD DUP5 DUP3 SUB PUSH1 0x60 DUP7 ADD MSTORE PUSH2 0x85A DUP3 DUP3 PUSH2 0x7CB JUMP JUMPDEST SWAP2 POP POP PUSH1 0x80 DUP4 ADD MLOAD PUSH2 0x86F PUSH1 0x80 DUP7 ADD DUP3 PUSH2 0x776 JUMP JUMPDEST POP PUSH1 0xA0 DUP4 ADD MLOAD DUP5 DUP3 SUB PUSH1 0xA0 DUP7 ADD MSTORE PUSH2 0x887 DUP3 DUP3 PUSH2 0x7CB JUMP JUMPDEST SWAP2 POP POP DUP1 SWAP2 POP POP SWAP3 SWAP2 POP POP JUMP JUMPDEST PUSH1 0x0 PUSH2 0x8A0 DUP4 DUP4 PUSH2 0x804 JUMP JUMPDEST SWAP1 POP SWAP3 SWAP2 POP POP JUMP JUMPDEST PUSH1 0x0 PUSH1 0x20 DUP3 ADD SWAP1 POP SWAP2 SWAP1 POP JUMP JUMPDEST PUSH1 0x0 PUSH2 0x8C0 DUP3 PUSH2 0x729 JUMP JUMPDEST PUSH2 0x8CA DUP2 DUP6 PUSH2 0x734 JUMP JUMPDEST SWAP4 POP DUP4 PUSH1 0x20 DUP3 MUL DUP6 ADD PUSH2 0x8DC DUP6 PUSH2 0x745 JUMP JUMPDEST DUP1 PUSH1 0x0 JUMPDEST DUP6 DUP2 LT ISZERO PUSH2 0x918 JUMPI DUP5 DUP5 SUB DUP10 MSTORE DUP2 MLOAD PUSH2 0x8F9 DUP6 DUP3 PUSH2 0x894 JUMP JUMPDEST SWAP5 POP PUSH2 0x904 DUP4 PUSH2 0x8A8 JUMP JUMPDEST SWAP3 POP PUSH1 0x20 DUP11 ADD SWAP10 POP POP PUSH1 0x1 DUP2 ADD SWAP1 POP PUSH2 0x8E0 JUMP JUMPDEST POP DUP3 SWAP8 POP DUP8 SWAP6 POP POP POP POP POP POP SWAP3 SWAP2 POP POP JUMP JUMPDEST PUSH1 0x0 PUSH1 0x20 DUP3 ADD SWAP1 POP DUP2 DUP2 SUB PUSH1 0x0 DUP4 ADD MSTORE PUSH2 0x944 DUP2 DUP5 PUSH2 0x8B5 JUMP JUMPDEST SWAP1 POP SWAP3 SWAP2 POP POP JUMP JUMPDEST PUSH2 0x955 DUP2 PUSH2 0x50E JUMP JUMPDEST DUP3 MSTORE POP POP JUMP JUMPDEST PUSH1 0x0 PUSH1 0x20 DUP3 ADD SWAP1 POP PUSH2 0x970 PUSH1 0x0 DUP4 ADD DUP5 PUSH2 0x94C JUMP JUMPDEST SWAP3 SWAP2 POP POP JUMP JUMPDEST PUSH32 0x4E487B7100000000000000000000000000000000000000000000000000000000 PUSH1 0x0 MSTORE PUSH1 0x11 PUSH1 0x4 MSTORE PUSH1 0x24 PUSH1 0x0 REVERT JUMPDEST PUSH1 0x0 PUSH2 0x9B0 DUP3 PUSH2 0x50E JUMP JUMPDEST SWAP2 POP PUSH32 0xFFFFFFFFFFFFFFFFFFFFFFFFFFFFFFFFFFFFFFFFFFFFFFFFFFFFFFFFFFFFFFFF DUP3 SUB PUSH2 0x9E2 JUMPI PUSH2 0x9E1 PUSH2 0x976 JUMP JUMPDEST JUMPDEST PUSH1 0x1 DUP3 ADD SWAP1 POP SWAP2 SWAP1 POP JUMP JUMPDEST PUSH32 0x4E487B7100000000000000000000000000000000000000000000000000000000 PUSH1 0x0 MSTORE PUSH1 0x22 PUSH1 0x4 MSTORE PUSH1 0x24 PUSH1 0x0 REVERT JUMPDEST PUSH1 0x0 PUSH1 0x2 DUP3 DIV SWAP1 POP PUSH1 0x1 DUP3 AND DUP1 PUSH2 0xA34 JUMPI PUSH1 0x7F DUP3 AND SWAP2 POP JUMPDEST PUSH1 0x20 DUP3 LT DUP2 SUB PUSH2 0xA47 JUMPI PUSH2 0xA46 PUSH2 0x9ED JUMP JUMPDEST JUMPDEST POP SWAP2 SWAP1 POP JUMP JUMPDEST PUSH1 0x0 DUP2 SWAP1 POP DUP2 PUSH1 0x0 MSTORE PUSH1 0x20 PUSH1 0x0 KECCAK256 SWAP1 POP SWAP2 SWAP1 POP JUMP JUMPDEST PUSH1 0x0 PUSH1 0x20 PUSH1 0x1F DUP4 ADD DIV SWAP1 POP SWAP2 SWAP1 POP JUMP JUMPDEST PUSH1 0x0 DUP3 DUP3 SHL SWAP1 POP SWAP3 SWAP2 POP POP JUMP JUMPDEST PUSH1 0x0 PUSH1 0x8 DUP4 MUL PUSH2 0xAAF PUSH32 0xFFFFFFFFFFFFFFFFFFFFFFFFFFFFFFFFFFFFFFFFFFFFFFFFFFFFFFFFFFFFFFFF DUP3 PUSH2 0xA72 JUMP JUMPDEST PUSH2 0xAB9 DUP7 DUP4 PUSH2 0xA72 JUMP JUMPDEST SWAP6 POP DUP1 NOT DUP5 AND SWAP4 POP DUP1 DUP7 AND DUP5 OR SWAP3 POP POP POP SWAP4 SWAP3 POP POP POP JUMP JUMPDEST PUSH1 0x0 DUP2 SWAP1 POP SWAP2 SWAP1 POP JUMP JUMPDEST PUSH1 0x0 PUSH2 0xAF6 PUSH2 0xAF1 PUSH2 0xAEC DUP5 PUSH2 0x50E JUMP JUMPDEST PUSH2 0xAD1 JUMP JUMPDEST PUSH2 0x50E JUMP JUMPDEST SWAP1 POP SWAP2 SWAP1 POP JUMP JUMPDEST PUSH1 0x0 DUP2 SWAP1 POP SWAP2 SWAP1 POP JUMP JUMPDEST PUSH2 0xB10 DUP4 PUSH2 0xADB JUMP JUMPDEST PUSH2 0xB24 PUSH2 0xB1C DUP3 PUSH2 0xAFD JUMP JUMPDEST DUP5 DUP5 SLOAD PUSH2 0xA7F JUMP JUMPDEST DUP3 SSTORE POP POP POP POP JUMP JUMPDEST PUSH1 0x0 SWAP1 JUMP JUMPDEST PUSH2 0xB39 PUSH2 0xB2C JUMP JUMPDEST PUSH2 0xB44 DUP2 DUP5 DUP5 PUSH2 0xB07 JUMP JUMPDEST POP POP POP JUMP JUMPDEST JUMPDEST DUP2 DUP2 LT ISZERO PUSH2 0xB68 JUMPI PUSH2 0xB5D PUSH1 0x0 DUP3 PUSH2 0xB31 JUMP JUMPDEST PUSH1 0x1 DUP2 ADD SWAP1 POP PUSH2 0xB4A JUMP JUMPDEST POP POP JUMP JUMPDEST PUSH1 0x1F DUP3 GT ISZERO PUSH2 0xBAD JUMPI PUSH2 0xB7E DUP2 PUSH2 0xA4D JUMP JUMPDEST PUSH2 0xB87 DUP5 PUSH2 0xA62 JUMP JUMPDEST DUP2 ADD PUSH1 0x20 DUP6 LT ISZERO PUSH2 0xB96 JUMPI DUP2 SWAP1 POP JUMPDEST PUSH2 0xBAA PUSH2 0xBA2 DUP6 PUSH2 0xA62 JUMP JUMPDEST DUP4 ADD DUP3 PUSH2 0xB49 JUMP JUMPDEST POP POP JUMPDEST POP POP POP JUMP JUMPDEST PUSH1 0x0 DUP3 DUP3 SHR SWAP1 POP SWAP3 SWAP2 POP POP JUMP JUMPDEST PUSH1 0x0 PUSH2 0xBD0 PUSH1 0x0 NOT DUP5 PUSH1 0x8 MUL PUSH2 0xBB2 JUMP JUMPDEST NOT DUP1 DUP4 AND SWAP2 POP POP SWAP3 SWAP2 POP POP JUMP JUMPDEST PUSH1 0x0 PUSH2 0xBE9 DUP4 DUP4 PUSH2 0xBBF JUMP JUMPDEST SWAP2 POP DUP3 PUSH1 0x2 MUL DUP3 OR SWAP1 POP SWAP3 SWAP2 POP POP JUMP JUMPDEST PUSH2 0xC02 DUP3 PUSH2 0x785 JUMP JUMPDEST PUSH8 0xFFFFFFFFFFFFFFFF DUP2 GT ISZERO PUSH2 0xC1B JUMPI PUSH2 0xC1A PUSH2 0x55F JUMP JUMPDEST JUMPDEST PUSH2 0xC25 DUP3 SLOAD PUSH2 0xA1C JUMP JUMPDEST PUSH2 0xC30 DUP3 DUP3 DUP6 PUSH2 0xB6C JUMP JUMPDEST PUSH1 0x0 PUSH1 0x20 SWAP1 POP PUSH1 0x1F DUP4 GT PUSH1 0x1 DUP2 EQ PUSH2 0xC63 JUMPI PUSH1 0x0 DUP5 ISZERO PUSH2 0xC51 JUMPI DUP3 DUP8 ADD MLOAD SWAP1 POP JUMPDEST PUSH2 0xC5B DUP6 DUP3 PUSH2 0xBDD JUMP JUMPDEST DUP7 SSTORE POP PUSH2 0xCC3 JUMP JUMPDEST PUSH1 0x1F NOT DUP5 AND PUSH2 0xC71 DUP7 PUSH2 0xA4D JUMP JUMPDEST PUSH1 0x0 JUMPDEST DUP3 DUP2 LT ISZERO PUSH2 0xC99 JUMPI DUP5 DUP10 ADD MLOAD DUP3 SSTORE PUSH1 0x1 DUP3 ADD SWAP2 POP PUSH1 0x20 DUP6 ADD SWAP5 POP PUSH1 0x20 DUP2 ADD SWAP1 POP PUSH2 0xC74 JUMP JUMPDEST DUP7 DUP4 LT ISZERO PUSH2 0xCB6 JUMPI DUP5 DUP10 ADD MLOAD PUSH2 0xCB2 PUSH1 0x1F DUP10 AND DUP3 PUSH2 0xBBF JUMP JUMPDEST DUP4 SSTORE POP JUMPDEST PUSH1 0x1 PUSH1 0x2 DUP9 MUL ADD DUP9 SSTORE POP POP POP JUMPDEST POP POP POP POP POP POP JUMP JUMPDEST PUSH2 0xCD4 DUP2 PUSH2 0x755 JUMP JUMPDEST DUP3 MSTORE POP POP JUMP JUMPDEST PUSH1 0x0 PUSH2 0xCF5 PUSH2 0xCF0 PUSH2 0xCEB DUP5 PUSH2 0x4B0 JUMP JUMPDEST PUSH2 0xAD1 JUMP JUMPDEST PUSH2 0x4B0 JUMP JUMPDEST SWAP1 POP SWAP2 SWAP1 POP JUMP JUMPDEST PUSH1 0x0 PUSH2 0xD07 DUP3 PUSH2 0xCDA JUMP JUMPDEST SWAP1 POP SWAP2 SWAP1 POP JUMP JUMPDEST PUSH1 0x0 PUSH2 0xD19 DUP3 PUSH2 0xCFC JUMP JUMPDEST SWAP1 POP SWAP2 SWAP1 POP JUMP JUMPDEST PUSH2 0xD29 DUP2 PUSH2 0xD0E JUMP JUMPDEST DUP3 MSTORE POP POP JUMP JUMPDEST PUSH1 0x0 DUP3 DUP3 MSTORE PUSH1 0x20 DUP3 ADD SWAP1 POP SWAP3 SWAP2 POP POP JUMP JUMPDEST PUSH1 0x0 PUSH2 0xD4B DUP3 PUSH2 0x785 JUMP JUMPDEST PUSH2 0xD55 DUP2 DUP6 PUSH2 0xD2F JUMP JUMPDEST SWAP4 POP PUSH2 0xD65 DUP2 DUP6 PUSH1 0x20 DUP7 ADD PUSH2 0x7A1 JUMP JUMPDEST PUSH2 0xD6E DUP2 PUSH2 0x54E JUMP JUMPDEST DUP5 ADD SWAP2 POP POP SWAP3 SWAP2 POP POP JUMP JUMPDEST PUSH1 0x0 PUSH1 0xC0 DUP3 ADD SWAP1 POP PUSH2 0xD8E PUSH1 0x0 DUP4 ADD DUP10 PUSH2 0xCCB JUMP JUMPDEST PUSH2 0xD9B PUSH1 0x20 DUP4 ADD DUP9 PUSH2 0xD20 JUMP JUMPDEST PUSH2 0xDA8 PUSH1 0x40 DUP4 ADD DUP8 PUSH2 0x94C JUMP JUMPDEST DUP2 DUP2 SUB PUSH1 0x60 DUP4 ADD MSTORE PUSH2 0xDBA DUP2 DUP7 PUSH2 0xD40 JUMP JUMPDEST SWAP1 POP PUSH2 0xDC9 PUSH1 0x80 DUP4 ADD DUP6 PUSH2 0x94C JUMP JUMPDEST DUP2 DUP2 SUB PUSH1 0xA0 DUP4 ADD MSTORE PUSH2 0xDDB DUP2 DUP5 PUSH2 0xD40 JUMP JUMPDEST SWAP1 POP SWAP8 SWAP7 POP POP POP POP POP POP POP JUMP INVALID LOG2 PUSH5 0x6970667358 0x22 SLT KECCAK256 PUSH9 0xD034C849BBD23F1C8B 0xB5 0xB3 PUSH11 0xFB849F3392B515ED08236B 0xDB DUP16 0xF8 REVERT 0xB1 SWAP12 CALLVALUE PUSH9 0x64736F6C634300081C STOP CALLER "
        },
        "methodIdentifiers": {
          "addtoBlockChain(address,uint256,string,string)": "14d003ea",
          "getAllTransactions()": "27506f53",
          "getTransactionCount()": "2e7700f0"
        }
      }
    }
  }
}