{
    "_format": "hh-sol-artifact-1",
    "contractName": "Transaction",
    "sourceName": "contracts/Transaction.sol",
    "abi": [
        {
            "anonymous": false,
            "inputs": [
                {
                    "indexed": false,
                    "internalType": "address",
                    "name": "from",
                    "type": "address"
                },
                {
                    "indexed": false,
                    "internalType": "address",
                    "name": "receiver",
                    "type": "address"
                },
                {
                    "indexed": false,
                    "internalType": "uint256",
                    "name": "amount",
                    "type": "uint256"
                },
                {
                    "indexed": false,
                    "internalType": "string",
                    "name": "message",
                    "type": "string"
                },
                {
                    "indexed": false,
                    "internalType": "uint256",
                    "name": "timestamp",
                    "type": "uint256"
                },
                {
                    "indexed": false,
                    "internalType": "string",
                    "name": "keyword",
                    "type": "string"
                }
            ],
            "name": "Transfer",
            "type": "event"
        },
        {
            "inputs": [
                {
                    "internalType": "address payable",
                    "name": "receiver",
                    "type": "address"
                },
                {
                    "internalType": "uint256",
                    "name": "amount",
                    "type": "uint256"
                },
                {
                    "internalType": "string",
                    "name": "message",
                    "type": "string"
                },
                {
                    "internalType": "string",
                    "name": "keyword",
                    "type": "string"
                }
            ],
            "name": "addtoBlockChain",
            "outputs": [],
            "stateMutability": "nonpayable",
            "type": "function"
        },
        {
            "inputs": [],
            "name": "getAllTransactions",
            "outputs": [
                {
                    "components": [
                        {
                            "internalType": "address",
                            "name": "sender",
                            "type": "address"
                        },
                        {
                            "internalType": "address",
                            "name": "receiver",
                            "type": "address"
                        },
                        {
                            "internalType": "uint256",
                            "name": "amount",
                            "type": "uint256"
                        },
                        {
                            "internalType": "string",
                            "name": "message",
                            "type": "string"
                        },
                        {
                            "internalType": "uint256",
                            "name": "timestamp",
                            "type": "uint256"
                        },
                        {
                            "internalType": "string",
                            "name": "keyword",
                            "type": "string"
                        }
                    ],
                    "internalType": "struct Transaction.TransferStruct[]",
                    "name": "",
                    "type": "tuple[]"
                }
            ],
            "stateMutability": "view",
            "type": "function"
        },
        {
            "inputs": [],
            "name": "getTransactionCount",
            "outputs": [
                {
                    "internalType": "uint256",
                    "name": "",
                    "type": "uint256"
                }
            ],
            "stateMutability": "view",
            "type": "function"
        }
    ],
    "bytecode": "0x6080604052348015600f57600080fd5b50610e1e8061001f6000396000f3fe608060405234801561001057600080fd5b50600436106100415760003560e01c806314d003ea1461004657806327506f53146100625780632e7700f014610080575b600080fd5b610060600480360381019061005b919061068a565b61009e565b005b61006a610250565b604051610077919061092a565b60405180910390f35b610088610493565b604051610095919061095b565b60405180910390f35b6000808154809291906100b0906109a5565b919050555060016040518060c001604052803373ffffffffffffffffffffffffffffffffffffffff1681526020018673ffffffffffffffffffffffffffffffffffffffff16815260200185815260200184815260200142815260200183815250908060018154018082558091505060019003906000526020600020906006020160009091909190915060008201518160000160006101000a81548173ffffffffffffffffffffffffffffffffffffffff021916908373ffffffffffffffffffffffffffffffffffffffff16021790555060208201518160010160006101000a81548173ffffffffffffffffffffffffffffffffffffffff021916908373ffffffffffffffffffffffffffffffffffffffff1602179055506040820151816002015560608201518160030190816101e69190610bf9565b506080820151816004015560a08201518160050190816102069190610bf9565b5050507f416cfa4330a4565f45c2fd2dd4826a83a37443aba2ce6f79477c7355afac35fa33858585428660405161024296959493929190610d79565b60405180910390a150505050565b60606001805480602002602001604051908101604052809291908181526020016000905b8282101561048a57838290600052602060002090600602016040518060c00160405290816000820160009054906101000a900473ffffffffffffffffffffffffffffffffffffffff1673ffffffffffffffffffffffffffffffffffffffff1673ffffffffffffffffffffffffffffffffffffffff1681526020016001820160009054906101000a900473ffffffffffffffffffffffffffffffffffffffff1673ffffffffffffffffffffffffffffffffffffffff1673ffffffffffffffffffffffffffffffffffffffff1681526020016002820154815260200160038201805461035d90610a1c565b80601f016020809104026020016040519081016040528092919081815260200182805461038990610a1c565b80156103d65780601f106103ab576101008083540402835291602001916103d6565b820191906000526020600020905b8154815290600101906020018083116103b957829003601f168201915b50505050508152602001600482015481526020016005820180546103f990610a1c565b80601f016020809104026020016040519081016040528092919081815260200182805461042590610a1c565b80156104725780601f1061044757610100808354040283529160200191610472565b820191906000526020600020905b81548152906001019060200180831161045557829003601f168201915b50505050508152505081526020019060010190610274565b50505050905090565b60008054905090565b6000604051905090565b600080fd5b600080fd5b600073ffffffffffffffffffffffffffffffffffffffff82169050919050565b60006104db826104b0565b9050919050565b6104eb816104d0565b81146104f657600080fd5b50565b600081359050610508816104e2565b92915050565b6000819050919050565b6105218161050e565b811461052c57600080fd5b50565b60008135905061053e81610518565b92915050565b600080fd5b600080fd5b6000601f19601f8301169050919050565b7f4e487b7100000000000000000000000000000000000000000000000000000000600052604160045260246000fd5b6105978261054e565b810181811067ffffffffffffffff821117156105b6576105b561055f565b5b80604052505050565b60006105c961049c565b90506105d5828261058e565b919050565b600067ffffffffffffffff8211156105f5576105f461055f565b5b6105fe8261054e565b9050602081019050919050565b82818337600083830152505050565b600061062d610628846105da565b6105bf565b90508281526020810184848401111561064957610648610549565b5b61065484828561060b565b509392505050565b600082601f83011261067157610670610544565b5b813561068184826020860161061a565b91505092915050565b600080600080608085870312156106a4576106a36104a6565b5b60006106b2878288016104f9565b94505060206106c38782880161052f565b935050604085013567ffffffffffffffff8111156106e4576106e36104ab565b5b6106f08782880161065c565b925050606085013567ffffffffffffffff811115610711576107106104ab565b5b61071d8782880161065c565b91505092959194509250565b600081519050919050565b600082825260208201905092915050565b6000819050602082019050919050565b6000610760826104b0565b9050919050565b61077081610755565b82525050565b61077f8161050e565b82525050565b600081519050919050565b600082825260208201905092915050565b60005b838110156107bf5780820151818401526020810190506107a4565b60008484015250505050565b60006107d682610785565b6107e08185610790565b93506107f08185602086016107a1565b6107f98161054e565b840191505092915050565b600060c08301600083015161081c6000860182610767565b50602083015161082f6020860182610767565b5060408301516108426040860182610776565b506060830151848203606086015261085a82826107cb565b915050608083015161086f6080860182610776565b5060a083015184820360a086015261088782826107cb565b9150508091505092915050565b60006108a08383610804565b905092915050565b6000602082019050919050565b60006108c082610729565b6108ca8185610734565b9350836020820285016108dc85610745565b8060005b8581101561091857848403895281516108f98582610894565b9450610904836108a8565b925060208a019950506001810190506108e0565b50829750879550505050505092915050565b6000602082019050818103600083015261094481846108b5565b905092915050565b6109558161050e565b82525050565b6000602082019050610970600083018461094c565b92915050565b7f4e487b7100000000000000000000000000000000000000000000000000000000600052601160045260246000fd5b60006109b08261050e565b91507fffffffffffffffffffffffffffffffffffffffffffffffffffffffffffffffff82036109e2576109e1610976565b5b600182019050919050565b7f4e487b7100000000000000000000000000000000000000000000000000000000600052602260045260246000fd5b60006002820490506001821680610a3457607f821691505b602082108103610a4757610a466109ed565b5b50919050565b60008190508160005260206000209050919050565b60006020601f8301049050919050565b600082821b905092915050565b600060088302610aaf7fffffffffffffffffffffffffffffffffffffffffffffffffffffffffffffffff82610a72565b610ab98683610a72565b95508019841693508086168417925050509392505050565b6000819050919050565b6000610af6610af1610aec8461050e565b610ad1565b61050e565b9050919050565b6000819050919050565b610b1083610adb565b610b24610b1c82610afd565b848454610a7f565b825550505050565b600090565b610b39610b2c565b610b44818484610b07565b505050565b5b81811015610b6857610b5d600082610b31565b600181019050610b4a565b5050565b601f821115610bad57610b7e81610a4d565b610b8784610a62565b81016020851015610b96578190505b610baa610ba285610a62565b830182610b49565b50505b505050565b600082821c905092915050565b6000610bd060001984600802610bb2565b1980831691505092915050565b6000610be98383610bbf565b9150826002028217905092915050565b610c0282610785565b67ffffffffffffffff811115610c1b57610c1a61055f565b5b610c258254610a1c565b610c30828285610b6c565b600060209050601f831160018114610c635760008415610c51578287015190505b610c5b8582610bdd565b865550610cc3565b601f198416610c7186610a4d565b60005b82811015610c9957848901518255600182019150602085019450602081019050610c74565b86831015610cb65784890151610cb2601f891682610bbf565b8355505b6001600288020188555050505b505050505050565b610cd481610755565b82525050565b6000610cf5610cf0610ceb846104b0565b610ad1565b6104b0565b9050919050565b6000610d0782610cda565b9050919050565b6000610d1982610cfc565b9050919050565b610d2981610d0e565b82525050565b600082825260208201905092915050565b6000610d4b82610785565b610d558185610d2f565b9350610d658185602086016107a1565b610d6e8161054e565b840191505092915050565b600060c082019050610d8e6000830189610ccb565b610d9b6020830188610d20565b610da8604083018761094c565b8181036060830152610dba8186610d40565b9050610dc9608083018561094c565b81810360a0830152610ddb8184610d40565b905097965050505050505056fea264697066735822122068d034c849bbd23f1c8bb5b36afb849f3392b515ed08236bdb8ff8fdb19b346864736f6c634300081c0033",
    "linkReferences": {},
    "deployedLinkReferences": {}
}